{
  "contractName": "ValidatorRegistration",
  "abi": [
    {
      "constant": true,
      "inputs": [],
      "name": "MIN_TOPUP_SIZE",
      "outputs": [
        {
          "name": "",
          "type": "uint256"
        }
      ],
      "payable": false,
      "stateMutability": "view",
      "type": "function"
    },
    {
      "constant": true,
      "inputs": [],
      "name": "GWEI_PER_ETH",
      "outputs": [
        {
          "name": "",
          "type": "uint256"
        }
      ],
      "payable": false,
      "stateMutability": "view",
      "type": "function"
    },
    {
      "constant": true,
      "inputs": [],
      "name": "MERKLE_TREE_DEPTH",
      "outputs": [
        {
          "name": "",
          "type": "uint256"
        }
      ],
      "payable": false,
      "stateMutability": "view",
      "type": "function"
    },
    {
      "constant": true,
      "inputs": [],
      "name": "DEPOSIT_SIZE",
      "outputs": [
        {
          "name": "",
          "type": "uint256"
        }
      ],
      "payable": false,
      "stateMutability": "view",
      "type": "function"
    },
    {
      "constant": true,
      "inputs": [
        {
          "name": "",
          "type": "uint256"
        }
      ],
      "name": "receiptTree",
      "outputs": [
        {
          "name": "",
          "type": "bytes"
        }
      ],
      "payable": false,
      "stateMutability": "view",
      "type": "function"
    },
    {
      "constant": true,
      "inputs": [],
      "name": "SECONDS_PER_DAY",
      "outputs": [
        {
          "name": "",
          "type": "uint256"
        }
      ],
      "payable": false,
      "stateMutability": "view",
      "type": "function"
    },
    {
      "constant": true,
      "inputs": [],
      "name": "DEPOSITS_FOR_CHAIN_START",
      "outputs": [
        {
          "name": "",
          "type": "uint256"
        }
      ],
      "payable": false,
      "stateMutability": "view",
      "type": "function"
    },
    {
      "constant": true,
      "inputs": [],
      "name": "totalDepositCount",
      "outputs": [
        {
          "name": "",
          "type": "uint256"
        }
      ],
      "payable": false,
      "stateMutability": "view",
      "type": "function"
    },
    {
      "anonymous": false,
      "inputs": [
        {
          "indexed": true,
          "name": "previousReceiptRoot",
          "type": "bytes"
        },
        {
          "indexed": false,
          "name": "data",
          "type": "bytes"
        },
        {
          "indexed": false,
          "name": "totalDepositcount",
          "type": "uint256"
        }
      ],
      "name": "HashChainValue",
      "type": "event"
    },
    {
      "anonymous": false,
      "inputs": [
        {
          "indexed": true,
          "name": "receiptRoot",
          "type": "bytes"
        },
        {
          "indexed": false,
          "name": "time",
          "type": "bytes"
        }
      ],
      "name": "ChainStart",
      "type": "event"
    },
    {
      "constant": false,
      "inputs": [
        {
          "name": "depositParams",
          "type": "bytes"
        }
      ],
      "name": "deposit",
      "outputs": [],
      "payable": true,
      "stateMutability": "payable",
      "type": "function"
    },
    {
      "constant": true,
      "inputs": [],
      "name": "getReceiptRoot",
      "outputs": [
        {
          "name": "",
          "type": "bytes"
        }
      ],
      "payable": false,
      "stateMutability": "view",
      "type": "function"
    },
    {
      "constant": true,
      "inputs": [
        {
          "name": "x",
          "type": "uint256"
        }
      ],
      "name": "toBytes",
      "outputs": [
        {
          "name": "",
          "type": "bytes"
        }
      ],
      "payable": false,
      "stateMutability": "pure",
      "type": "function"
    },
    {
      "constant": false,
      "inputs": [
        {
          "name": "a",
          "type": "bytes"
        },
        {
          "name": "b",
          "type": "bytes"
        }
      ],
      "name": "mergeBytes",
      "outputs": [
        {
          "name": "c",
          "type": "bytes"
        }
      ],
      "payable": false,
      "stateMutability": "nonpayable",
      "type": "function"
    }
  ],
  "bytecode": "0x608060405234801561001057600080fd5b50611003806100206000396000f3006080604052600436106100ba576000357c0100000000000000000000000000000000000000000000000000000000900463ffffffff16806320d24cb7146100bf57806324eda209146100ea5780632f9680f5146101155780633568cda01461015257806336bf33251461017d5780634213155f146101a8578063701f8212146101d357806374f0314f14610210578063775a8f5e1461023b57806398b1e06a14610278578063cac0057c14610294578063d6343867146102bf575b600080fd5b3480156100cb57600080fd5b506100d46102ea565b6040516100e19190610ed8565b60405180910390f35b3480156100f657600080fd5b506100ff6102f6565b60405161010c9190610ed8565b60405180910390f35b34801561012157600080fd5b5061013c60048036036101379190810190610c5a565b6102fe565b6040516101499190610e46565b60405180910390f35b34801561015e57600080fd5b506101676103ab565b6040516101749190610ed8565b60405180910390f35b34801561018957600080fd5b506101926103b0565b60405161019f9190610ed8565b60405180910390f35b3480156101b457600080fd5b506101bd6103bd565b6040516101ca9190610e46565b60405180910390f35b3480156101df57600080fd5b506101fa60048036036101f59190810190610cc6565b610470565b6040516102079190610e24565b60405180910390f35b34801561021c57600080fd5b50610225610520565b6040516102329190610ed8565b60405180910390f35b34801561024757600080fd5b50610262600480360361025d9190810190610cc6565b610527565b60405161026f9190610e46565b60405180910390f35b610292600480360361028d9190810190610c19565b610570565b005b3480156102a057600080fd5b506102a9610aff565b6040516102b69190610ed8565b60405180910390f35b3480156102cb57600080fd5b506102d4610b04565b6040516102e19190610ed8565b60405180910390f35b670de0b6b3a764000081565b633b9aca0081565b6060600080600080865193508551840192506020601f88510181151561032057fe5b0491506020601f87510181151561033357fe5b04905060405183815260005b8381101561036657806001016020028901518160010160200283015280600101905061033f565b5060005b82811015610393578060010160200288015186826001016020020183015280600101905061036a565b50836020018101604052809550505050505092915050565b601081565b6801bc16d674ec80000081565b6060600080600181526020019081526020016000208054600181600116156101000203166002900480601f0160208091040260200160405190810160405280929190818152602001828054600181600116156101000203166002900480156104665780601f1061043b57610100808354040283529160200191610466565b820191906000526020600020905b81548152906001019060200180831161044957829003601f168201915b5050505050905090565b60006020528060005260406000206000915090508054600181600116156101000203166002900480601f0160208091040260200160405190810160405280929190818152602001828054600181600116156101000203166002900480156105185780601f106104ed57610100808354040283529160200191610518565b820191906000526020600020905b8154815290600101906020018083116104fb57829003601f168201915b505050505081565b6201518081565b60608060206040519080825280601f01601f19166020018201604052801561055e5781602001602082028038833980820191505090505b50905082602082015280915050919050565b600060608060606000806060601060020a60015401965061059034610527565b955061059b42610527565b94506105b06105aa87876102fe565b896102fe565b93506000806001815260200190815260200160002060405180828054600181600116156101000203166002900480156106205780601f106105fe576101008083540402835291820191610620565b820191906000526020600020905b81548152906001019060200180831161060c575b505091505060405180910390207fd60002d8f2bba463e7d533a8fa9b84d9d7451dc0bb7e9da868104601a5d2b9ef89600154604051610660929190610e68565b60405180910390a2836040518082805190602001908083835b60208310151561069e5780518252602082019150602081019050602083039250610679565b6001836020036101000a03801982511681845116808217855250505050505090500191505060405180910390206040516020018082600019166000191681526020019150506040516020818303038152906040526000808981526020019081526020016000209080519060200190610717929190610b0a565b50600092505b60108310156109585760028781151561073257fe5b04965061089c60008060028a0281526020019081526020016000208054600181600116156101000203166002900480601f0160208091040260200160405190810160405280929190818152602001828054600181600116156101000203166002900480156107e15780601f106107b6576101008083540402835291602001916107e1565b820191906000526020600020905b8154815290600101906020018083116107c457829003601f168201915b5050505050600080600160028c020181526020019081526020016000208054600181600116156101000203166002900480601f0160208091040260200160405190810160405280929190818152602001828054600181600116156101000203166002900480156108925780601f1061086757610100808354040283529160200191610892565b820191906000526020600020905b81548152906001019060200180831161087557829003601f168201915b50505050506102fe565b6040518082805190602001908083835b6020831015156108d157805182526020820191506020810190506020830392506108ac565b6001836020036101000a0380198251168184511680821785525050505050509050019150506040518091039020604051602001808260001916600019168152602001915050604051602081830303815290604052600080898152602001908152602001600020908051906020019061094a929190610b0a565b50828060010193505061071d565b6801bc16d674ec80000034111515156109a6576040517f08c379a000000000000000000000000000000000000000000000000000000000815260040161099d90610eb8565b60405180910390fd5b670de0b6b3a764000034101515156109f3576040517f08c379a00000000000000000000000000000000000000000000000000000000081526004016109ea90610e98565b60405180910390fd5b6801bc16d674ec800000341415610a17576001600081548092919060010191905055505b60086001541415610af557620151808042811515610a3157fe5b064203019150610a4082610527565b9050600080600181526020019081526020016000206040518082805460018160011615610100020316600290048015610ab05780601f10610a8e576101008083540402835291820191610ab0565b820191906000526020600020905b815481529060010190602001808311610a9c575b505091505060405180910390207fb24eb1954aa12b3433be2b11740f2f73c8673453064575f93f223a85f1215f3a82604051610aec9190610e46565b60405180910390a25b5050505050505050565b600881565b60015481565b828054600181600116156101000203166002900490600052602060002090601f016020900481019282601f10610b4b57805160ff1916838001178555610b79565b82800160010185558215610b79579182015b82811115610b78578251825591602001919060010190610b5d565b5b509050610b869190610b8a565b5090565b610bac91905b80821115610ba8576000816000905550600101610b90565b5090565b90565b600082601f8301121515610bc257600080fd5b8135610bd5610bd082610f20565b610ef3565b91508082526020830160208301858383011115610bf157600080fd5b610bfc838284610f76565b50505092915050565b6000610c118235610f6c565b905092915050565b600060208284031215610c2b57600080fd5b600082013567ffffffffffffffff811115610c4557600080fd5b610c5184828501610baf565b91505092915050565b60008060408385031215610c6d57600080fd5b600083013567ffffffffffffffff811115610c8757600080fd5b610c9385828601610baf565b925050602083013567ffffffffffffffff811115610cb057600080fd5b610cbc85828601610baf565b9150509250929050565b600060208284031215610cd857600080fd5b6000610ce684828501610c05565b91505092915050565b6000610cfa82610f57565b808452610d0e816020860160208601610f85565b610d1781610fb8565b602085010191505092915050565b6000610d3082610f4c565b808452610d44816020860160208601610f85565b610d4d81610fb8565b602085010191505092915050565b6000602c82527f4465706f7369742063616e2774206265206c6573736572207468616e204d494e60208301527f5f544f5055505f53495a452e00000000000000000000000000000000000000006040830152606082019050919050565b6000602b82527f4465706f7369742063616e27742062652067726561746572207468616e20444560208301527f504f5349545f53495a452e0000000000000000000000000000000000000000006040830152606082019050919050565b610e1e81610f62565b82525050565b60006020820190508181036000830152610e3e8184610d25565b905092915050565b60006020820190508181036000830152610e608184610cef565b905092915050565b60006040820190508181036000830152610e828185610cef565b9050610e916020830184610e15565b9392505050565b60006020820190508181036000830152610eb181610d5b565b9050919050565b60006020820190508181036000830152610ed181610db8565b9050919050565b6000602082019050610eed6000830184610e15565b92915050565b6000604051905081810181811067ffffffffffffffff82111715610f1657600080fd5b8060405250919050565b600067ffffffffffffffff821115610f3757600080fd5b601f19601f8301169050602081019050919050565b600081519050919050565b600081519050919050565b6000819050919050565b6000819050919050565b82818337600083830152505050565b60005b83811015610fa3578082015181840152602081019050610f88565b83811115610fb2576000848401525b50505050565b6000601f19601f83011690509190505600a265627a7a72305820c31d1d458ef54e9764783ab1eeb4341b094fd26f56ef78723963b47207cc3c406c6578706572696d656e74616cf50037",
  "source": "pragma solidity ^0.4.23;\npragma experimental ABIEncoderV2;\n\n\ncontract ValidatorRegistration {\n\n    event HashChainValue(\n        bytes indexed previousReceiptRoot,\n        bytes data,\n        uint totalDepositcount\n    );\n\n    event ChainStart(\n        bytes indexed receiptRoot,\n        bytes time\n    );\n\n    uint public constant DEPOSIT_SIZE = 32 ether;\n    uint public constant DEPOSITS_FOR_CHAIN_START = 8;\n    uint public constant MIN_TOPUP_SIZE = 1 ether;\n    uint public constant GWEI_PER_ETH = 10 ** 9;\n    // Setting MERKLE_TREE_DEPTH to 16 instead of 32 due to gas limit\n    uint public constant MERKLE_TREE_DEPTH = 16;\n    uint public constant SECONDS_PER_DAY = 86400;\n\n    mapping (uint => bytes) public receiptTree;\n    uint public totalDepositCount;\n\n    // When users wish to become a validator by moving ETH from\n    // 1.0 chian to the 2.0 chain, they should call this function\n    // sending along DEPOSIT_SIZE ETH and providing depositParams\n    // as a simple serialize'd DepositParams object of the following\n    // form: \n    // {\n    //    'pubkey': 'int256',\n    //    'proof_of_possession': ['int256'],\n    //    'withdrawal_credentials`: 'hash32',\n    //    'randao_commitment`: 'hash32'\n    // }\n    function deposit(\n        bytes depositParams\n    )\n        public\n        payable\n    {\n        uint index = totalDepositCount + 2 ** MERKLE_TREE_DEPTH;\n        bytes memory msgGweiInBytes = toBytes(msg.value);\n        bytes memory timeStampInBytes = toBytes(block.timestamp);\n        bytes memory depositData = mergeBytes(mergeBytes(msgGweiInBytes, timeStampInBytes), depositParams);\n\n        emit HashChainValue(receiptTree[1], depositParams, totalDepositCount);\n\n        receiptTree[index] = abi.encodePacked(keccak256(depositData));\n        for (uint i = 0; i < MERKLE_TREE_DEPTH; i++) {\n            index = index / 2;\n            receiptTree[index] = abi.encodePacked(keccak256(mergeBytes(receiptTree[index * 2], receiptTree[index * 2 + 1])));\n        }\n\n        require(\n            msg.value <= DEPOSIT_SIZE,\n            \"Deposit can't be greater than DEPOSIT_SIZE.\"\n        );\n        require(\n            msg.value >= MIN_TOPUP_SIZE,\n            \"Deposit can't be lesser than MIN_TOPUP_SIZE.\"\n        );\n        if (msg.value == DEPOSIT_SIZE) {\n            totalDepositCount++;\n        }\n\n        // When ChainStart log publishes, beacon chain node initializes the chain and use timestampDayBoundry\n        // as genesis time.\n        if (totalDepositCount == DEPOSITS_FOR_CHAIN_START) {\n            uint timestampDayBoundry = block.timestamp - block.timestamp % SECONDS_PER_DAY + SECONDS_PER_DAY;\n            bytes memory timestampDayBoundryBytes = toBytes(timestampDayBoundry);\n            emit ChainStart(receiptTree[1], timestampDayBoundryBytes);\n        }\n    }\n\n    function getReceiptRoot() public view returns (bytes memory) {\n        return receiptTree[1];\n    }\n\n    function toBytes(uint x ) public pure returns (bytes memory) {\n        bytes memory b = new bytes(32);\n        assembly { \n            mstore(add(b, 32), x) \n        }\n        return b;\n    }\n\n    function mergeBytes(bytes memory a, bytes memory b) public returns (bytes memory c) {\n        // Store the length of the first array\n        uint alen = a.length;\n        // Store the length of BOTH arrays\n        uint totallen = alen + b.length;\n        // Count the loops required for array a (sets of 32 bytes)\n        uint loopsa = (a.length + 31) / 32;\n        // Count the loops required for array b (sets of 32 bytes)\n        uint loopsb = (b.length + 31) / 32;\n        assembly {\n            let m := mload(0x40)\n            // Load the length of both arrays to the head of the new bytes array\n            mstore(m, totallen)\n            // Add the contents of a to the array\n            for {  let i := 0 } lt(i, loopsa) { i := add(1, i) } { mstore(add(m, mul(32, add(1, i))), mload(add(a, mul(32, add(1, i))))) }\n            // Add the contents of b to the array\n            for {  let i := 0 } lt(i, loopsb) { i := add(1, i) } { mstore(add(m, add(mul(32, add(1, i)), alen)), mload(add(b, mul(32, add(1, i))))) }\n            mstore(0x40, add(m, add(32, totallen)))\n            c := m\n        }\n    }\n}",
  "sourcePath": "/home/ai/Desktop/validator-registration -contract/validator-registration-contract/contracts/ValidatorRegistration.sol",
  "compiler": {
    "name": "solc",
    "version": "0.4.24+commit.e67f0147.Emscripten.clang"
  },
  "schemaVersion": "2.0.1",
  "updatedAt": "2018-12-12T18:55:48.726Z"
}