{
  "contractName": "ValidatorRegistrationT",
  "abi": [
    {
      "constant": true,
      "inputs": [],
      "name": "MIN_TOPUP_SIZE",
      "outputs": [
        {
          "name": "",
          "type": "uint256"
        }
      ],
      "payable": false,
      "stateMutability": "view",
      "type": "function"
    },
    {
      "constant": true,
      "inputs": [],
      "name": "GWEI_PER_ETH",
      "outputs": [
        {
          "name": "",
          "type": "uint256"
        }
      ],
      "payable": false,
      "stateMutability": "view",
      "type": "function"
    },
    {
      "constant": true,
      "inputs": [],
      "name": "MERKLE_TREE_DEPTH",
      "outputs": [
        {
          "name": "",
          "type": "uint256"
        }
      ],
      "payable": false,
      "stateMutability": "view",
      "type": "function"
    },
    {
      "constant": true,
      "inputs": [],
      "name": "DEPOSIT_SIZE",
      "outputs": [
        {
          "name": "",
          "type": "uint256"
        }
      ],
      "payable": false,
      "stateMutability": "view",
      "type": "function"
    },
    {
      "constant": true,
      "inputs": [
        {
          "name": "",
          "type": "uint256"
        }
      ],
      "name": "receiptTree",
      "outputs": [
        {
          "name": "",
          "type": "bytes"
        }
      ],
      "payable": false,
      "stateMutability": "view",
      "type": "function"
    },
    {
      "constant": true,
      "inputs": [],
      "name": "SECONDS_PER_DAY",
      "outputs": [
        {
          "name": "",
          "type": "uint256"
        }
      ],
      "payable": false,
      "stateMutability": "view",
      "type": "function"
    },
    {
      "constant": true,
      "inputs": [],
      "name": "DEPOSITS_FOR_CHAIN_START",
      "outputs": [
        {
          "name": "",
          "type": "uint256"
        }
      ],
      "payable": false,
      "stateMutability": "view",
      "type": "function"
    },
    {
      "constant": true,
      "inputs": [],
      "name": "totalDepositCount",
      "outputs": [
        {
          "name": "",
          "type": "uint256"
        }
      ],
      "payable": false,
      "stateMutability": "view",
      "type": "function"
    },
    {
      "anonymous": false,
      "inputs": [
        {
          "indexed": true,
          "name": "previousReceiptRoot",
          "type": "bytes"
        },
        {
          "indexed": false,
          "name": "data",
          "type": "bytes"
        },
        {
          "indexed": false,
          "name": "totalDepositcount",
          "type": "uint256"
        }
      ],
      "name": "HashChainValue",
      "type": "event"
    },
    {
      "anonymous": false,
      "inputs": [
        {
          "indexed": true,
          "name": "receiptRoot",
          "type": "bytes"
        },
        {
          "indexed": false,
          "name": "time",
          "type": "bytes"
        }
      ],
      "name": "ChainStart",
      "type": "event"
    },
    {
      "constant": false,
      "inputs": [
        {
          "name": "depositParams",
          "type": "bytes"
        }
      ],
      "name": "deposit",
      "outputs": [],
      "payable": true,
      "stateMutability": "payable",
      "type": "function"
    },
    {
      "constant": true,
      "inputs": [],
      "name": "getReceiptRoot",
      "outputs": [
        {
          "name": "",
          "type": "bytes"
        }
      ],
      "payable": false,
      "stateMutability": "view",
      "type": "function"
    }
  ],
  "bytecode": "0x608060405234801561001057600080fd5b50610d9f806100206000396000f3006080604052600436106100a4576000357c0100000000000000000000000000000000000000000000000000000000900463ffffffff16806320d24cb7146100a957806324eda209146100d45780633568cda0146100ff57806336bf33251461012a5780634213155f14610155578063701f8212146101e557806374f0314f1461028b57806398b1e06a146102b6578063cac0057c14610312578063d63438671461033d575b600080fd5b3480156100b557600080fd5b506100be610368565b6040518082815260200191505060405180910390f35b3480156100e057600080fd5b506100e9610374565b6040518082815260200191505060405180910390f35b34801561010b57600080fd5b5061011461037c565b6040518082815260200191505060405180910390f35b34801561013657600080fd5b5061013f610381565b6040518082815260200191505060405180910390f35b34801561016157600080fd5b5061016a61038e565b6040518080602001828103825283818151815260200191508051906020019080838360005b838110156101aa57808201518184015260208101905061018f565b50505050905090810190601f1680156101d75780820380516001836020036101000a031916815260200191505b509250505060405180910390f35b3480156101f157600080fd5b5061021060048036038101908080359060200190929190505050610441565b6040518080602001828103825283818151815260200191508051906020019080838360005b83811015610250578082015181840152602081019050610235565b50505050905090810190601f16801561027d5780820380516001836020036101000a031916815260200191505b509250505060405180910390f35b34801561029757600080fd5b506102a06104f1565b6040518082815260200191505060405180910390f35b610310600480360381019080803590602001908201803590602001908080601f01602080910402602001604051908101604052809392919081815260200183838082843782019150505050505091929192905050506104f8565b005b34801561031e57600080fd5b50610327610571565b6040518082815260200191505060405180910390f35b34801561034957600080fd5b50610352610576565b6040518082815260200191505060405180910390f35b670de0b6b3a764000081565b633b9aca0081565b601081565b6801bc16d674ec80000081565b6060600080600181526020019081526020016000208054600181600116156101000203166002900480601f0160208091040260200160405190810160405280929190818152602001828054600181600116156101000203166002900480156104375780601f1061040c57610100808354040283529160200191610437565b820191906000526020600020905b81548152906001019060200180831161041a57829003601f168201915b5050505050905090565b60006020528060005260406000206000915090508054600181600116156101000203166002900480601f0160208091040260200160405190810160405280929190818152602001828054600181600116156101000203166002900480156104e95780601f106104be576101008083540402835291602001916104e9565b820191906000526020600020905b8154815290600101906020018083116104cc57829003601f168201915b505050505081565b6201518081565b606060006801bc16d674ec800000341115801561051d5750670de0b6b3a76400003410155b151561052857600080fd5b610532833461057c565b915091506105408282610700565b6801bc16d674ec800000341415610564576001600081548092919060010191905055505b61056c6109f7565b505050565b600881565b60015481565b60606000806060806060600160008154809291906001019190505550601060020a6001540193506105ac87610b71565b92506105b742610b71565b91506105cc6105c68484610bba565b89610bba565b905060008060018152602001908152602001600020604051808280546001816001161561010002031660029004801561063c5780601f1061061a57610100808354040283529182019161063c565b820191906000526020600020905b815481529060010190602001808311610628575b505091505060405180910390207fd60002d8f2bba463e7d533a8fa9b84d9d7451dc0bb7e9da868104601a5d2b9ef896001546040518080602001838152602001828103825284818151815260200191508051906020019080838360005b838110156106b4578082015181840152602081019050610699565b50505050905090810190601f1680156106e15780820380516001836020036101000a031916815260200191505b50935050505060405180910390a2808495509550505050509250929050565b6000826040518082805190602001908083835b6020831015156107385780518252602082019150602081019050602083039250610713565b6001836020036101000a038019825116818451168082178552505050505050905001915050604051809103902060405160200180826000191660001916815260200191505060405160208183030381529060405260008084815260200190815260200160002090805190602001906107b1929190610cce565b50600090505b60108110156109f2576002828115156107cc57fe5b0491506109366000806002850281526020019081526020016000208054600181600116156101000203166002900480601f01602080910402602001604051908101604052809291908181526020018280546001816001161561010002031660029004801561087b5780601f106108505761010080835404028352916020019161087b565b820191906000526020600020905b81548152906001019060200180831161085e57829003601f168201915b50505050506000806001600287020181526020019081526020016000208054600181600116156101000203166002900480601f01602080910402602001604051908101604052809291908181526020018280546001816001161561010002031660029004801561092c5780601f106109015761010080835404028352916020019161092c565b820191906000526020600020905b81548152906001019060200180831161090f57829003601f168201915b5050505050610bba565b6040518082805190602001908083835b60208310151561096b5780518252602082019150602081019050602083039250610946565b6001836020036101000a038019825116818451168082178552505050505050905001915050604051809103902060405160200180826000191660001916815260200191505060405160208183030381529060405260008084815260200190815260200160002090805190602001906109e4929190610cce565b5080806001019150506107b7565b505050565b600060606008600154141515610a0c57600080fd5b610a4962015180610a3b610a2c6201518042610c6790919063ffffffff16565b42610c8c90919063ffffffff16565b610cad90919063ffffffff16565b9150610a5482610b71565b9050600080600181526020019081526020016000206040518082805460018160011615610100020316600290048015610ac45780601f10610aa2576101008083540402835291820191610ac4565b820191906000526020600020905b815481529060010190602001808311610ab0575b505091505060405180910390207fb24eb1954aa12b3433be2b11740f2f73c8673453064575f93f223a85f1215f3a826040518080602001828103825283818151815260200191508051906020019080838360005b83811015610b33578082015181840152602081019050610b18565b50505050905090810190601f168015610b605780820380516001836020036101000a031916815260200191505b509250505060405180910390a25050565b60608060206040519080825280601f01601f191660200182016040528015610ba85781602001602082028038833980820191505090505b50905082602082015280915050919050565b6060600080600080865193508551840192506020601f885101811515610bdc57fe5b0491506020601f875101811515610bef57fe5b04905060405183815260005b83811015610c22578060010160200289015181600101602002830152806001019050610bfb565b5060005b82811015610c4f5780600101602002880151868260010160200201830152806001019050610c26565b50836020018101604052809550505050505092915050565b6000808214151515610c7857600080fd5b8183811515610c8357fe5b06905092915050565b600080838311151515610c9e57600080fd5b82840390508091505092915050565b6000808284019050838110151515610cc457600080fd5b8091505092915050565b828054600181600116156101000203166002900490600052602060002090601f016020900481019282601f10610d0f57805160ff1916838001178555610d3d565b82800160010185558215610d3d579182015b82811115610d3c578251825591602001919060010190610d21565b5b509050610d4a9190610d4e565b5090565b610d7091905b80821115610d6c576000816000905550600101610d54565b5090565b905600a165627a7a72305820d9e0b311096086b128578364e71278a8e97c01e380e54762a1f21f7215fa07ed0029",
  "source": "pragma solidity ^0.4.23;\n//pragma experimental ABIEncoderV2;\nimport \"./SafeMath.sol\";\n\n\n\ncontract ValidatorRegistrationT {\n\n    uint public constant DEPOSIT_SIZE = 32 ether;\n    uint public constant DEPOSITS_FOR_CHAIN_START = 8;\n    uint public constant MIN_TOPUP_SIZE = 1 ether;\n    uint public constant GWEI_PER_ETH = 10 ** 9;\n    // Setting MERKLE_TREE_DEPTH to 16 instead of 32 due to gas limit\n    uint public constant MERKLE_TREE_DEPTH = 16;\n    uint public constant SECONDS_PER_DAY = 86400;\n\n    mapping (uint => bytes) public receiptTree;\n    uint public totalDepositCount;\n\n    using SafeMath for uint256;\n\n    event HashChainValue(\n        bytes indexed previousReceiptRoot,\n        bytes data,\n        uint totalDepositcount\n    );\n\n    event ChainStart(\n        bytes indexed receiptRoot,\n        bytes time\n    );\n\n  \n\n    // When users wish to become a validator by moving ETH from\n    // 1.0 chian to the 2.0 chain, they should call this function\n    // sending along DEPOSIT_SIZE ETH and providing depositParams\n    // as a simple serialize'd DepositParams object of the following\n    // form: \n    // {\n    //    'pubkey': 'int256',\n    //    'proof_of_possession': ['int256'],\n    //    'withdrawal_credentials`: 'hash32',\n    //    'randao_commitment`: 'hash32'\n    // }\n\n   \n    function  initializeDeposit(bytes memory depositParams, uint amount) private returns(bytes memory, uint) {\n        totalDepositCount++;\n        uint index = totalDepositCount + 2 ** MERKLE_TREE_DEPTH;\n        bytes memory msgGweiInBytes = toBytes(amount);\n        bytes memory timeStampInBytes = toBytes(block.timestamp);\n        bytes memory depositData = mergeBytes(mergeBytes(msgGweiInBytes, timeStampInBytes), depositParams);\n        emit HashChainValue(receiptTree[1], depositParams, totalDepositCount);\n        return (depositData, index);\n    }\n\n    //who pays for a gas? due to high amount of iterations 2**16 function might fail witrh \"out of gas\"\n    function computeReceiptTree(bytes memory depositData, uint index) private {\n        receiptTree[index] = abi.encodePacked(keccak256(depositData));\n        for (uint i = 0; i < MERKLE_TREE_DEPTH; i++) {\n            index = index / 2;\n            receiptTree[index] = abi.encodePacked(keccak256(mergeBytes(receiptTree[index * 2], receiptTree[index * 2 + 1])));\n        }\n    }\n    // When ChainStart log publishes, beacon chain node initializes the chain and use timestampDayBoundry\n        // as genesis time.\n    function initializeChain() private  {\n         \n        require(totalDepositCount == DEPOSITS_FOR_CHAIN_START);\n        uint timestampDayBoundry = block.timestamp.sub(block.timestamp.mod(SECONDS_PER_DAY)).add(SECONDS_PER_DAY);\n        bytes memory timestampDayBoundryBytes = toBytes(timestampDayBoundry);\n        emit ChainStart(receiptTree[1], timestampDayBoundryBytes);\n        }\n\n    \n\n    function deposit(bytes memory depositParams) \n      public \n      payable\n    {\n        require (msg.value <= DEPOSIT_SIZE  && msg.value >= MIN_TOPUP_SIZE);\n        (bytes memory depositData, uint index) =  initializeDeposit(depositParams, msg.value);\n        computeReceiptTree(depositData, index);\n\n        if (msg.value == DEPOSIT_SIZE) {\n            totalDepositCount++;\n        }\n        initializeChain();\n        \n    }\n\n    function getReceiptRoot() public view returns (bytes) {\n        return receiptTree[1];\n    }\n\n    function toBytes(uint x) private pure returns (bytes memory) {\n        bytes memory b = new bytes(32);\n        assembly { \n            mstore(add(b, 32), x) \n        }\n        return b;\n    }\n\n    function mergeBytes(bytes memory a, bytes memory b) private pure returns (bytes memory c) {\n        // Store the length of the first array\n        uint alen = a.length;\n        // Store the length of BOTH arrays\n        uint totallen = alen + b.length;\n        // Count the loops required for array a (sets of 32 bytes)\n        uint loopsa = (a.length + 31) / 32;\n        // Count the loops required for array b (sets of 32 bytes)\n        uint loopsb = (b.length + 31) / 32;\n        assembly {\n            let m := mload(0x40)\n            // Load the length of both arrays to the head of the new bytes array\n            mstore(m, totallen)\n            // Add the contents of a to the array\n            for {  let i := 0 } lt(i, loopsa) { i := add(1, i) } { mstore(add(m, mul(32, add(1, i))), mload(add(a, mul(32, add(1, i))))) }\n            // Add the contents of b to the array\n            for {  let i := 0 } lt(i, loopsb) { i := add(1, i) } { mstore(add(m, add(mul(32, add(1, i)), alen)), mload(add(b, mul(32, add(1, i))))) }\n            mstore(0x40, add(m, add(32, totallen)))\n            c := m\n        }\n    }\n}",
  "sourcePath": "/home/ai/Desktop/validator-registration -contract/truffle/contracts/ValidatorRegistrationT.sol",
  "compiler": {
    "name": "solc",
    "version": "0.4.24+commit.e67f0147.Emscripten.clang"
  },
  "schemaVersion": "2.0.1",
  "updatedAt": "2018-12-14T05:16:35.221Z"
}