{
  "contractName": "ValidatorRegistrationTest",
  "abi": [
    {
      "constant": true,
      "inputs": [],
      "name": "MIN_TOPUP_SIZE",
      "outputs": [
        {
          "name": "",
          "type": "uint256"
        }
      ],
      "payable": false,
      "stateMutability": "view",
      "type": "function"
    },
    {
      "constant": true,
      "inputs": [],
      "name": "GWEI_PER_ETH",
      "outputs": [
        {
          "name": "",
          "type": "uint256"
        }
      ],
      "payable": false,
      "stateMutability": "view",
      "type": "function"
    },
    {
      "constant": true,
      "inputs": [],
      "name": "MERKLE_TREE_DEPTH",
      "outputs": [
        {
          "name": "",
          "type": "uint256"
        }
      ],
      "payable": false,
      "stateMutability": "view",
      "type": "function"
    },
    {
      "constant": true,
      "inputs": [],
      "name": "DEPOSIT_SIZE",
      "outputs": [
        {
          "name": "",
          "type": "uint256"
        }
      ],
      "payable": false,
      "stateMutability": "view",
      "type": "function"
    },
    {
      "constant": true,
      "inputs": [
        {
          "name": "",
          "type": "uint256"
        }
      ],
      "name": "receiptTree",
      "outputs": [
        {
          "name": "",
          "type": "bytes"
        }
      ],
      "payable": false,
      "stateMutability": "view",
      "type": "function"
    },
    {
      "constant": true,
      "inputs": [],
      "name": "SECONDS_PER_DAY",
      "outputs": [
        {
          "name": "",
          "type": "uint256"
        }
      ],
      "payable": false,
      "stateMutability": "view",
      "type": "function"
    },
    {
      "constant": true,
      "inputs": [],
      "name": "DEPOSITS_FOR_CHAIN_START",
      "outputs": [
        {
          "name": "",
          "type": "uint256"
        }
      ],
      "payable": false,
      "stateMutability": "view",
      "type": "function"
    },
    {
      "constant": true,
      "inputs": [],
      "name": "totalDepositCount",
      "outputs": [
        {
          "name": "",
          "type": "uint256"
        }
      ],
      "payable": false,
      "stateMutability": "view",
      "type": "function"
    },
    {
      "anonymous": false,
      "inputs": [
        {
          "indexed": true,
          "name": "previousReceiptRoot",
          "type": "bytes"
        },
        {
          "indexed": false,
          "name": "data",
          "type": "bytes"
        },
        {
          "indexed": false,
          "name": "totalDepositcount",
          "type": "uint256"
        }
      ],
      "name": "HashChainValue",
      "type": "event"
    },
    {
      "anonymous": false,
      "inputs": [
        {
          "indexed": true,
          "name": "receiptRoot",
          "type": "bytes"
        },
        {
          "indexed": false,
          "name": "time",
          "type": "bytes"
        }
      ],
      "name": "ChainStart",
      "type": "event"
    },
    {
      "constant": false,
      "inputs": [
        {
          "name": "depositParams",
          "type": "bytes"
        }
      ],
      "name": "deposit",
      "outputs": [],
      "payable": true,
      "stateMutability": "payable",
      "type": "function"
    },
    {
      "constant": true,
      "inputs": [],
      "name": "getReceiptRoot",
      "outputs": [
        {
          "name": "",
          "type": "bytes"
        }
      ],
      "payable": false,
      "stateMutability": "view",
      "type": "function"
    },
    {
      "constant": true,
      "inputs": [
        {
          "name": "x",
          "type": "uint256"
        }
      ],
      "name": "toBytes",
      "outputs": [
        {
          "name": "",
          "type": "bytes"
        }
      ],
      "payable": false,
      "stateMutability": "pure",
      "type": "function"
    },
    {
      "constant": true,
      "inputs": [
        {
          "name": "a",
          "type": "bytes"
        },
        {
          "name": "b",
          "type": "bytes"
        }
      ],
      "name": "mergeBytes",
      "outputs": [
        {
          "name": "c",
          "type": "bytes"
        }
      ],
      "payable": false,
      "stateMutability": "pure",
      "type": "function"
    }
  ],
  "bytecode": "0x608060405234801561001057600080fd5b50610f83806100206000396000f3006080604052600436106100ba576000357c0100000000000000000000000000000000000000000000000000000000900463ffffffff16806320d24cb7146100bf57806324eda209146100ea5780632f9680f5146101155780633568cda01461023d57806336bf3325146102685780634213155f14610293578063701f82121461032357806374f0314f146103c9578063775a8f5e146103f457806398b1e06a1461049a578063cac0057c146104f6578063d634386714610521575b600080fd5b3480156100cb57600080fd5b506100d461054c565b6040518082815260200191505060405180910390f35b3480156100f657600080fd5b506100ff610558565b6040518082815260200191505060405180910390f35b34801561012157600080fd5b506101c2600480360381019080803590602001908201803590602001908080601f0160208091040260200160405190810160405280939291908181526020018383808284378201915050505050509192919290803590602001908201803590602001908080601f0160208091040260200160405190810160405280939291908181526020018383808284378201915050505050509192919290505050610560565b6040518080602001828103825283818151815260200191508051906020019080838360005b838110156102025780820151818401526020810190506101e7565b50505050905090810190601f16801561022f5780820380516001836020036101000a031916815260200191505b509250505060405180910390f35b34801561024957600080fd5b5061025261060d565b6040518082815260200191505060405180910390f35b34801561027457600080fd5b5061027d610612565b6040518082815260200191505060405180910390f35b34801561029f57600080fd5b506102a861061f565b6040518080602001828103825283818151815260200191508051906020019080838360005b838110156102e85780820151818401526020810190506102cd565b50505050905090810190601f1680156103155780820380516001836020036101000a031916815260200191505b509250505060405180910390f35b34801561032f57600080fd5b5061034e600480360381019080803590602001909291905050506106d2565b6040518080602001828103825283818151815260200191508051906020019080838360005b8381101561038e578082015181840152602081019050610373565b50505050905090810190601f1680156103bb5780820380516001836020036101000a031916815260200191505b509250505060405180910390f35b3480156103d557600080fd5b506103de610782565b6040518082815260200191505060405180910390f35b34801561040057600080fd5b5061041f60048036038101908080359060200190929190505050610789565b6040518080602001828103825283818151815260200191508051906020019080838360005b8381101561045f578082015181840152602081019050610444565b50505050905090810190601f16801561048c5780820380516001836020036101000a031916815260200191505b509250505060405180910390f35b6104f4600480360381019080803590602001908201803590602001908080601f01602080910402602001604051908101604052809392919081815260200183838082843782019150505050505091929192905050506107d2565b005b34801561050257600080fd5b5061050b61084b565b6040518082815260200191505060405180910390f35b34801561052d57600080fd5b50610536610850565b6040518082815260200191505060405180910390f35b670de0b6b3a764000081565b633b9aca0081565b6060600080600080865193508551840192506020601f88510181151561058257fe5b0491506020601f87510181151561059557fe5b04905060405183815260005b838110156105c85780600101602002890151816001016020028301528060010190506105a1565b5060005b828110156105f557806001016020028801518682600101602002018301528060010190506105cc565b50836020018101604052809550505050505092915050565b601081565b6801bc16d674ec80000081565b6060600080600181526020019081526020016000208054600181600116156101000203166002900480601f0160208091040260200160405190810160405280929190818152602001828054600181600116156101000203166002900480156106c85780601f1061069d576101008083540402835291602001916106c8565b820191906000526020600020905b8154815290600101906020018083116106ab57829003601f168201915b5050505050905090565b60006020528060005260406000206000915090508054600181600116156101000203166002900480601f01602080910402602001604051908101604052809291908181526020018280546001816001161561010002031660029004801561077a5780601f1061074f5761010080835404028352916020019161077a565b820191906000526020600020905b81548152906001019060200180831161075d57829003601f168201915b505050505081565b6201518081565b60608060206040519080825280601f01601f1916602001820160405280156107c05781602001602082028038833980820191505090505b50905082602082015280915050919050565b606060006801bc16d674ec80000034111580156107f75750670de0b6b3a76400003410155b151561080257600080fd5b61080c8334610856565b9150915061081a82826109da565b6801bc16d674ec80000034141561083e576001600081548092919060010191905055505b610846610cd1565b505050565b600881565b60015481565b60606000806060806060600160008154809291906001019190505550601060020a60015401935061088687610789565b925061089142610789565b91506108a66108a08484610560565b89610560565b90506000806001815260200190815260200160002060405180828054600181600116156101000203166002900480156109165780601f106108f4576101008083540402835291820191610916565b820191906000526020600020905b815481529060010190602001808311610902575b505091505060405180910390207fd60002d8f2bba463e7d533a8fa9b84d9d7451dc0bb7e9da868104601a5d2b9ef896001546040518080602001838152602001828103825284818151815260200191508051906020019080838360005b8381101561098e578082015181840152602081019050610973565b50505050905090810190601f1680156109bb5780820380516001836020036101000a031916815260200191505b50935050505060405180910390a2808495509550505050509250929050565b6000826040518082805190602001908083835b602083101515610a1257805182526020820191506020810190506020830392506109ed565b6001836020036101000a03801982511681845116808217855250505050505090500191505060405180910390206040516020018082600019166000191681526020019150506040516020818303038152906040526000808481526020019081526020016000209080519060200190610a8b929190610eb2565b50600090505b6010811015610ccc57600282811515610aa657fe5b049150610c106000806002850281526020019081526020016000208054600181600116156101000203166002900480601f016020809104026020016040519081016040528092919081815260200182805460018160011615610100020316600290048015610b555780601f10610b2a57610100808354040283529160200191610b55565b820191906000526020600020905b815481529060010190602001808311610b3857829003601f168201915b50505050506000806001600287020181526020019081526020016000208054600181600116156101000203166002900480601f016020809104026020016040519081016040528092919081815260200182805460018160011615610100020316600290048015610c065780601f10610bdb57610100808354040283529160200191610c06565b820191906000526020600020905b815481529060010190602001808311610be957829003601f168201915b5050505050610560565b6040518082805190602001908083835b602083101515610c455780518252602082019150602081019050602083039250610c20565b6001836020036101000a03801982511681845116808217855250505050505090500191505060405180910390206040516020018082600019166000191681526020019150506040516020818303038152906040526000808481526020019081526020016000209080519060200190610cbe929190610eb2565b508080600101915050610a91565b505050565b600060606008600154141515610ce657600080fd5b610d2362015180610d15610d066201518042610e4b90919063ffffffff16565b42610e7090919063ffffffff16565b610e9190919063ffffffff16565b9150610d2e82610789565b9050600080600181526020019081526020016000206040518082805460018160011615610100020316600290048015610d9e5780601f10610d7c576101008083540402835291820191610d9e565b820191906000526020600020905b815481529060010190602001808311610d8a575b505091505060405180910390207fb24eb1954aa12b3433be2b11740f2f73c8673453064575f93f223a85f1215f3a826040518080602001828103825283818151815260200191508051906020019080838360005b83811015610e0d578082015181840152602081019050610df2565b50505050905090810190601f168015610e3a5780820380516001836020036101000a031916815260200191505b509250505060405180910390a25050565b6000808214151515610e5c57600080fd5b8183811515610e6757fe5b06905092915050565b600080838311151515610e8257600080fd5b82840390508091505092915050565b6000808284019050838110151515610ea857600080fd5b8091505092915050565b828054600181600116156101000203166002900490600052602060002090601f016020900481019282601f10610ef357805160ff1916838001178555610f21565b82800160010185558215610f21579182015b82811115610f20578251825591602001919060010190610f05565b5b509050610f2e9190610f32565b5090565b610f5491905b80821115610f50576000816000905550600101610f38565b5090565b905600a165627a7a72305820af00ff7043c5213775d2fabe0584180ef56d10b5d905683b04d39dec21ae288d0029",
  "source": "pragma solidity ^0.4.23;\n//pragma experimental ABIEncoderV2;\nimport \"./SafeMath.sol\";\n\n\n\ncontract ValidatorRegistrationTest {\n\n    uint public constant DEPOSIT_SIZE = 32 ether;\n    uint public constant DEPOSITS_FOR_CHAIN_START = 8;\n    uint public constant MIN_TOPUP_SIZE = 1 ether;\n    uint public constant GWEI_PER_ETH = 10 ** 9;\n    // Setting MERKLE_TREE_DEPTH to 16 instead of 32 due to gas limit\n    uint public constant MERKLE_TREE_DEPTH = 16;\n    uint public constant SECONDS_PER_DAY = 86400;\n\n    mapping (uint => bytes) public receiptTree;\n    uint public totalDepositCount;\n\n    using SafeMath for uint256;\n\n    event HashChainValue(\n        bytes indexed previousReceiptRoot,\n        bytes data,\n        uint totalDepositcount\n    );\n\n    event ChainStart(\n        bytes indexed receiptRoot,\n        bytes time\n    );\n\n  \n\n    // When users wish to become a validator by moving ETH from\n    // 1.0 chian to the 2.0 chain, they should call this function\n    // sending along DEPOSIT_SIZE ETH and providing depositParams\n    // as a simple serialize'd DepositParams object of the following\n    // form: \n    // {\n    //    'pubkey': 'int256',\n    //    'proof_of_possession': ['int256'],\n    //    'withdrawal_credentials`: 'hash32',\n    //    'randao_commitment`: 'hash32'\n    // }\n\n   \n    function  initializeDeposit(bytes memory depositParams, uint amount) private returns(bytes memory, uint) {\n        totalDepositCount++;\n        uint index = totalDepositCount + 2 ** MERKLE_TREE_DEPTH;\n        bytes memory msgGweiInBytes = toBytes(amount);\n        bytes memory timeStampInBytes = toBytes(block.timestamp);\n        bytes memory depositData = mergeBytes(mergeBytes(msgGweiInBytes, timeStampInBytes), depositParams);\n        emit HashChainValue(receiptTree[1], depositParams, totalDepositCount);\n        return (depositData, index);\n    }\n\n    //who pays for a gas? due to high amount of iterations 2**16 function might fail witrh \"out of gas\"\n    function computeReceiptTree(bytes memory depositData, uint index) private {\n        receiptTree[index] = abi.encodePacked(keccak256(depositData));\n        for (uint i = 0; i < MERKLE_TREE_DEPTH; i++) {\n            index = index / 2;\n            receiptTree[index] = abi.encodePacked(keccak256(mergeBytes(receiptTree[index * 2], receiptTree[index * 2 + 1])));\n        }\n    }\n    // When ChainStart log publishes, beacon chain node initializes the chain and use timestampDayBoundry\n        // as genesis time.\n    function initializeChain() private  {\n         \n        require(totalDepositCount == DEPOSITS_FOR_CHAIN_START);\n        uint timestampDayBoundry = block.timestamp.sub(block.timestamp.mod(SECONDS_PER_DAY)).add(SECONDS_PER_DAY);\n        bytes memory timestampDayBoundryBytes = toBytes(timestampDayBoundry);\n        emit ChainStart(receiptTree[1], timestampDayBoundryBytes);\n        }\n\n    \n\n    function deposit(bytes memory depositParams) \n      public \n      payable\n    {\n        require (msg.value <= DEPOSIT_SIZE  && msg.value >= MIN_TOPUP_SIZE);\n        (bytes memory depositData, uint index) =  initializeDeposit(depositParams, msg.value);\n        computeReceiptTree(depositData, index);\n\n        if (msg.value == DEPOSIT_SIZE) {\n            totalDepositCount++;\n        }\n        initializeChain();\n        \n    }\n\n    function getReceiptRoot() public view returns (bytes) {\n        return receiptTree[1];\n    }\n\n    function toBytes(uint x) public pure returns (bytes memory) {\n        bytes memory b = new bytes(32);\n        assembly { \n            mstore(add(b, 32), x) \n        }\n        return b;\n    }\n\n    function mergeBytes(bytes memory a, bytes memory b) public pure returns (bytes memory c) {\n        // Store the length of the first array\n        uint alen = a.length;\n        // Store the length of BOTH arrays\n        uint totallen = alen + b.length;\n        // Count the loops required for array a (sets of 32 bytes)\n        uint loopsa = (a.length + 31) / 32;\n        // Count the loops required for array b (sets of 32 bytes)\n        uint loopsb = (b.length + 31) / 32;\n        assembly {\n            let m := mload(0x40)\n            // Load the length of both arrays to the head of the new bytes array\n            mstore(m, totallen)\n            // Add the contents of a to the array\n            for {  let i := 0 } lt(i, loopsa) { i := add(1, i) } { mstore(add(m, mul(32, add(1, i))), mload(add(a, mul(32, add(1, i))))) }\n            // Add the contents of b to the array\n            for {  let i := 0 } lt(i, loopsb) { i := add(1, i) } { mstore(add(m, add(mul(32, add(1, i)), alen)), mload(add(b, mul(32, add(1, i))))) }\n            mstore(0x40, add(m, add(32, totallen)))\n            c := m\n        }\n    }\n}",
  "sourcePath": "/home/ai/Desktop/validator-registration -contract/truffle/contracts/ValidatorRegistrationTest.sol",
  "compiler": {
    "name": "solc",
    "version": "0.4.24+commit.e67f0147.Emscripten.clang"
  },
  "schemaVersion": "2.0.1",
  "updatedAt": "2018-12-06T03:20:58.328Z"
}